{
  "_format": "hh-sol-artifact-1",
  "contractName": "Heritage",
  "sourceName": "contracts/Heritage.sol",
  "abi": [
    {
      "inputs": [
        {
          "internalType": "address",
          "name": "_heir",
          "type": "address"
        },
        {
          "internalType": "uint256",
          "name": "_timeAlive",
          "type": "uint256"
        }
      ],
      "stateMutability": "payable",
      "type": "constructor"
    },
    {
      "anonymous": false,
      "inputs": [
        {
          "indexed": true,
          "internalType": "bytes32",
          "name": "role",
          "type": "bytes32"
        },
        {
          "indexed": true,
          "internalType": "bytes32",
          "name": "previousAdminRole",
          "type": "bytes32"
        },
        {
          "indexed": true,
          "internalType": "bytes32",
          "name": "newAdminRole",
          "type": "bytes32"
        }
      ],
      "name": "RoleAdminChanged",
      "type": "event"
    },
    {
      "anonymous": false,
      "inputs": [
        {
          "indexed": true,
          "internalType": "bytes32",
          "name": "role",
          "type": "bytes32"
        },
        {
          "indexed": true,
          "internalType": "address",
          "name": "account",
          "type": "address"
        },
        {
          "indexed": true,
          "internalType": "address",
          "name": "sender",
          "type": "address"
        }
      ],
      "name": "RoleGranted",
      "type": "event"
    },
    {
      "anonymous": false,
      "inputs": [
        {
          "indexed": true,
          "internalType": "bytes32",
          "name": "role",
          "type": "bytes32"
        },
        {
          "indexed": true,
          "internalType": "address",
          "name": "account",
          "type": "address"
        },
        {
          "indexed": true,
          "internalType": "address",
          "name": "sender",
          "type": "address"
        }
      ],
      "name": "RoleRevoked",
      "type": "event"
    },
    {
      "inputs": [],
      "name": "APPOINTER_ROLE",
      "outputs": [
        {
          "internalType": "bytes32",
          "name": "",
          "type": "bytes32"
        }
      ],
      "stateMutability": "view",
      "type": "function"
    },
    {
      "inputs": [],
      "name": "DEFAULT_ADMIN_ROLE",
      "outputs": [
        {
          "internalType": "bytes32",
          "name": "",
          "type": "bytes32"
        }
      ],
      "stateMutability": "view",
      "type": "function"
    },
    {
      "inputs": [],
      "name": "HEIR_ROLE",
      "outputs": [
        {
          "internalType": "bytes32",
          "name": "",
          "type": "bytes32"
        }
      ],
      "stateMutability": "view",
      "type": "function"
    },
    {
      "inputs": [
        {
          "internalType": "bool",
          "name": "reset",
          "type": "bool"
        }
      ],
      "name": "acceptInheritance",
      "outputs": [],
      "stateMutability": "nonpayable",
      "type": "function"
    },
    {
      "inputs": [
        {
          "internalType": "address",
          "name": "_appointer",
          "type": "address"
        }
      ],
      "name": "addAppointerAddress",
      "outputs": [],
      "stateMutability": "nonpayable",
      "type": "function"
    },
    {
      "inputs": [
        {
          "internalType": "uint256",
          "name": "_timeAlive",
          "type": "uint256"
        }
      ],
      "name": "alive",
      "outputs": [],
      "stateMutability": "nonpayable",
      "type": "function"
    },
    {
      "inputs": [
        {
          "internalType": "address",
          "name": "_heir",
          "type": "address"
        }
      ],
      "name": "disinherit",
      "outputs": [],
      "stateMutability": "nonpayable",
      "type": "function"
    },
    {
      "inputs": [],
      "name": "disinheritAll",
      "outputs": [],
      "stateMutability": "nonpayable",
      "type": "function"
    },
    {
      "inputs": [
        {
          "internalType": "address",
          "name": "_destination",
          "type": "address"
        },
        {
          "internalType": "uint256",
          "name": "_value",
          "type": "uint256"
        },
        {
          "internalType": "bytes",
          "name": "_data",
          "type": "bytes"
        }
      ],
      "name": "executeTransaction",
      "outputs": [],
      "stateMutability": "nonpayable",
      "type": "function"
    },
    {
      "inputs": [
        {
          "internalType": "bytes32",
          "name": "role",
          "type": "bytes32"
        }
      ],
      "name": "getRoleAdmin",
      "outputs": [
        {
          "internalType": "bytes32",
          "name": "",
          "type": "bytes32"
        }
      ],
      "stateMutability": "view",
      "type": "function"
    },
    {
      "inputs": [
        {
          "internalType": "bytes32",
          "name": "role",
          "type": "bytes32"
        },
        {
          "internalType": "uint256",
          "name": "index",
          "type": "uint256"
        }
      ],
      "name": "getRoleMember",
      "outputs": [
        {
          "internalType": "address",
          "name": "",
          "type": "address"
        }
      ],
      "stateMutability": "view",
      "type": "function"
    },
    {
      "inputs": [
        {
          "internalType": "bytes32",
          "name": "role",
          "type": "bytes32"
        }
      ],
      "name": "getRoleMemberCount",
      "outputs": [
        {
          "internalType": "uint256",
          "name": "",
          "type": "uint256"
        }
      ],
      "stateMutability": "view",
      "type": "function"
    },
    {
      "inputs": [
        {
          "internalType": "bytes32",
          "name": "role",
          "type": "bytes32"
        },
        {
          "internalType": "address",
          "name": "account",
          "type": "address"
        }
      ],
      "name": "grantRole",
      "outputs": [],
      "stateMutability": "nonpayable",
      "type": "function"
    },
    {
      "inputs": [
        {
          "internalType": "bytes32",
          "name": "role",
          "type": "bytes32"
        },
        {
          "internalType": "address",
          "name": "account",
          "type": "address"
        }
      ],
      "name": "hasRole",
      "outputs": [
        {
          "internalType": "bool",
          "name": "",
          "type": "bool"
        }
      ],
      "stateMutability": "view",
      "type": "function"
    },
    {
      "inputs": [
        {
          "internalType": "address",
          "name": "_heir",
          "type": "address"
        }
      ],
      "name": "inherit",
      "outputs": [],
      "stateMutability": "nonpayable",
      "type": "function"
    },
    {
      "inputs": [
        {
          "internalType": "address",
          "name": "_appointer",
          "type": "address"
        }
      ],
      "name": "removeAppointerAddress",
      "outputs": [],
      "stateMutability": "nonpayable",
      "type": "function"
    },
    {
      "inputs": [
        {
          "internalType": "bytes32",
          "name": "role",
          "type": "bytes32"
        },
        {
          "internalType": "address",
          "name": "account",
          "type": "address"
        }
      ],
      "name": "renounceRole",
      "outputs": [],
      "stateMutability": "nonpayable",
      "type": "function"
    },
    {
      "inputs": [],
      "name": "revokeAllOtherAppointer",
      "outputs": [],
      "stateMutability": "nonpayable",
      "type": "function"
    },
    {
      "inputs": [
        {
          "internalType": "bytes32",
          "name": "role",
          "type": "bytes32"
        },
        {
          "internalType": "address",
          "name": "account",
          "type": "address"
        }
      ],
      "name": "revokeRole",
      "outputs": [],
      "stateMutability": "nonpayable",
      "type": "function"
    },
    {
      "inputs": [],
      "name": "startTime",
      "outputs": [
        {
          "internalType": "uint256",
          "name": "",
          "type": "uint256"
        }
      ],
      "stateMutability": "view",
      "type": "function"
    },
    {
      "inputs": [
        {
          "internalType": "bytes4",
          "name": "interfaceId",
          "type": "bytes4"
        }
      ],
      "name": "supportsInterface",
      "outputs": [
        {
          "internalType": "bool",
          "name": "",
          "type": "bool"
        }
      ],
      "stateMutability": "view",
      "type": "function"
    },
    {
      "inputs": [],
      "name": "timeAlive",
      "outputs": [
        {
          "internalType": "uint256",
          "name": "",
          "type": "uint256"
        }
      ],
      "stateMutability": "view",
      "type": "function"
    },
    {
      "stateMutability": "payable",
      "type": "receive"
    }
  ],
  "bytecode": "0x608060405260405162002315380380620023158339818101604052810190620000299190620003dd565b42600281905550806003819055506200004c6000801b33620000b860201b60201c565b6200007e7f5602aee0014778791585f52018f8b3bf65755a57f860fc9442dace08e5acaeb533620000b860201b60201c565b620000b07fca893da798aa0ac92242c512844f2ae25d5e8977424e21a8119b114a4f424e1383620000b860201b60201c565b505062000424565b620000cf82826200010060201b62000b5e1760201c565b620000fb8160016000858152602001908152602001600020620001f160201b62000c3e1790919060201c565b505050565b6200011282826200022960201b60201c565b620001ed57600160008084815260200190815260200160002060000160008373ffffffffffffffffffffffffffffffffffffffff1673ffffffffffffffffffffffffffffffffffffffff16815260200190815260200160002060006101000a81548160ff021916908315150217905550620001926200029360201b60201c565b73ffffffffffffffffffffffffffffffffffffffff168173ffffffffffffffffffffffffffffffffffffffff16837f2f8788117e7eff1d82e926ec794901d17c78024a50270940304540a733656f0d60405160405180910390a45b5050565b600062000221836000018373ffffffffffffffffffffffffffffffffffffffff1660001b6200029b60201b60201c565b905092915050565b600080600084815260200190815260200160002060000160008373ffffffffffffffffffffffffffffffffffffffff1673ffffffffffffffffffffffffffffffffffffffff16815260200190815260200160002060009054906101000a900460ff16905092915050565b600033905090565b6000620002af83836200031560201b60201c565b6200030a5782600001829080600181540180825580915050600190039060005260206000200160009091909190915055826000018054905083600101600084815260200190815260200160002081905550600190506200030f565b600090505b92915050565b600080836001016000848152602001908152602001600020541415905092915050565b600080fd5b600073ffffffffffffffffffffffffffffffffffffffff82169050919050565b60006200036a826200033d565b9050919050565b6200037c816200035d565b81146200038857600080fd5b50565b6000815190506200039c8162000371565b92915050565b6000819050919050565b620003b781620003a2565b8114620003c357600080fd5b50565b600081519050620003d781620003ac565b92915050565b60008060408385031215620003f757620003f662000338565b5b600062000407858286016200038b565b92505060206200041a85828601620003c6565b9150509250929050565b611ee180620004346000396000f3fe6080604052600436106101385760003560e01c80639010d07c116100ab578063a217fddf1161006f578063a217fddf14610418578063ca15c87314610443578063d547741f14610480578063e760e822146104a9578063ecacab38146104d2578063ff3e358f146104fd5761013f565b80639010d07c1461033557806391d14854146103725780639780833d146103af578063988a47bf146103d85780639a53cf0b146104015761013f565b806336568abe116100fd57806336568abe146102395780633f579f421461026257806353af88d11461028b5780636573c787146102b657806378e97925146102df57806387fc15091461030a5761013f565b8062cbe5631461014457806301ffc9a71461016d5780630e06cc72146101aa578063248a9ca3146101d35780632f2ff15d146102105761013f565b3661013f57005b600080fd5b34801561015057600080fd5b5061016b6004803603810190610166919061153e565b610514565b005b34801561017957600080fd5b50610194600480360381019061018f91906115c3565b61056c565b6040516101a1919061160b565b60405180910390f35b3480156101b657600080fd5b506101d160048036038101906101cc919061153e565b6105e6565b005b3480156101df57600080fd5b506101fa60048036038101906101f5919061165c565b61064b565b6040516102079190611698565b60405180910390f35b34801561021c57600080fd5b50610237600480360381019061023291906116b3565b61066a565b005b34801561024557600080fd5b50610260600480360381019061025b91906116b3565b61068b565b005b34801561026e57600080fd5b506102896004803603810190610284919061186f565b61070e565b005b34801561029757600080fd5b506102a06107b7565b6040516102ad91906118ed565b60405180910390f35b3480156102c257600080fd5b506102dd60048036038101906102d89190611908565b6107bd565b005b3480156102eb57600080fd5b506102f4610803565b60405161030191906118ed565b60405180910390f35b34801561031657600080fd5b5061031f610809565b60405161032c9190611698565b60405180910390f35b34801561034157600080fd5b5061035c60048036038101906103579190611935565b61082d565b6040516103699190611984565b60405180910390f35b34801561037e57600080fd5b50610399600480360381019061039491906116b3565b61085c565b6040516103a6919061160b565b60405180910390f35b3480156103bb57600080fd5b506103d660048036038101906103d191906119cb565b6108c6565b005b3480156103e457600080fd5b506103ff60048036038101906103fa919061153e565b61098e565b005b34801561040d57600080fd5b506104166109e6565b005b34801561042457600080fd5b5061042d610a1b565b60405161043a9190611698565b60405180910390f35b34801561044f57600080fd5b5061046a6004803603810190610465919061165c565b610a22565b60405161047791906118ed565b60405180910390f35b34801561048c57600080fd5b506104a760048036038101906104a291906116b3565b610a46565b005b3480156104b557600080fd5b506104d060048036038101906104cb919061153e565b610a67565b005b3480156104de57600080fd5b506104e7610b04565b6040516104f49190611698565b60405180910390f35b34801561050957600080fd5b50610512610b28565b005b7f5602aee0014778791585f52018f8b3bf65755a57f860fc9442dace08e5acaeb561053e81610c6e565b6105687fca893da798aa0ac92242c512844f2ae25d5e8977424e21a8119b114a4f424e1383610c82565b5050565b60007f5a05180f000000000000000000000000000000000000000000000000000000007bffffffffffffffffffffffffffffffffffffffffffffffffffffffff1916827bffffffffffffffffffffffffffffffffffffffffffffffffffffffff191614806105df57506105de82610cb6565b5b9050919050565b7f5602aee0014778791585f52018f8b3bf65755a57f860fc9442dace08e5acaeb561061081610c6e565b61063a7f5602aee0014778791585f52018f8b3bf65755a57f860fc9442dace08e5acaeb583610c82565b6106476000801b83610c82565b5050565b6000806000838152602001908152602001600020600101549050919050565b6106738261064b565b61067c81610c6e565b6106868383610c82565b505050565b610693610d30565b73ffffffffffffffffffffffffffffffffffffffff168173ffffffffffffffffffffffffffffffffffffffff1614610700576040517f08c379a00000000000000000000000000000000000000000000000000000000081526004016106f790611a7b565b60405180910390fd5b61070a8282610d38565b5050565b7f5602aee0014778791585f52018f8b3bf65755a57f860fc9442dace08e5acaeb561073881610c6e565b60008473ffffffffffffffffffffffffffffffffffffffff1684846040516107609190611b0c565b60006040518083038185875af1925050503d806000811461079d576040519150601f19603f3d011682016040523d82523d6000602084013e6107a2565b606091505b50509050806107b057600080fd5b5050505050565b60035481565b7f5602aee0014778791585f52018f8b3bf65755a57f860fc9442dace08e5acaeb56107e781610c6e565b4260028190555060008211156107ff57816003819055505b5050565b60025481565b7fca893da798aa0ac92242c512844f2ae25d5e8977424e21a8119b114a4f424e1381565b60006108548260016000868152602001908152602001600020610d6c90919063ffffffff16565b905092915050565b600080600084815260200190815260200160002060000160008373ffffffffffffffffffffffffffffffffffffffff1673ffffffffffffffffffffffffffffffffffffffff16815260200190815260200160002060009054906101000a900460ff16905092915050565b7fca893da798aa0ac92242c512844f2ae25d5e8977424e21a8119b114a4f424e136108f081610c6e565b6003546002546109009190611b52565b421161090b57600080fd5b81156109285761091b6000610d86565b610923610dc0565b610953565b6109527fca893da798aa0ac92242c512844f2ae25d5e8977424e21a8119b114a4f424e1333610d38565b5b6109606000801b33610c82565b61098a7f5602aee0014778791585f52018f8b3bf65755a57f860fc9442dace08e5acaeb533610c82565b5050565b7f5602aee0014778791585f52018f8b3bf65755a57f860fc9442dace08e5acaeb56109b881610c6e565b6109e27fca893da798aa0ac92242c512844f2ae25d5e8977424e21a8119b114a4f424e1383610d38565b5050565b7f5602aee0014778791585f52018f8b3bf65755a57f860fc9442dace08e5acaeb5610a1081610c6e565b610a18610dc0565b50565b6000801b81565b6000610a3f60016000848152602001908152602001600020610ded565b9050919050565b610a4f8261064b565b610a5881610c6e565b610a628383610d38565b505050565b7f5602aee0014778791585f52018f8b3bf65755a57f860fc9442dace08e5acaeb5610a9181610c6e565b8173ffffffffffffffffffffffffffffffffffffffff163373ffffffffffffffffffffffffffffffffffffffff1603610ac957600080fd5b610af37f5602aee0014778791585f52018f8b3bf65755a57f860fc9442dace08e5acaeb583610d38565b610b006000801b83610d38565b5050565b7f5602aee0014778791585f52018f8b3bf65755a57f860fc9442dace08e5acaeb581565b7f5602aee0014778791585f52018f8b3bf65755a57f860fc9442dace08e5acaeb5610b5281610c6e565b610b5b33610d86565b50565b610b68828261085c565b610c3a57600160008084815260200190815260200160002060000160008373ffffffffffffffffffffffffffffffffffffffff1673ffffffffffffffffffffffffffffffffffffffff16815260200190815260200160002060006101000a81548160ff021916908315150217905550610bdf610d30565b73ffffffffffffffffffffffffffffffffffffffff168173ffffffffffffffffffffffffffffffffffffffff16837f2f8788117e7eff1d82e926ec794901d17c78024a50270940304540a733656f0d60405160405180910390a45b5050565b6000610c66836000018373ffffffffffffffffffffffffffffffffffffffff1660001b610e02565b905092915050565b610c7f81610c7a610d30565b610e72565b50565b610c8c8282610b5e565b610cb18160016000858152602001908152602001600020610c3e90919063ffffffff16565b505050565b60007f7965db0b000000000000000000000000000000000000000000000000000000007bffffffffffffffffffffffffffffffffffffffffffffffffffffffff1916827bffffffffffffffffffffffffffffffffffffffffffffffffffffffff19161480610d295750610d2882610ef7565b5b9050919050565b600033905090565b610d428282610f61565b610d67816001600085815260200190815260200160002061104290919063ffffffff16565b505050565b6000610d7b8360000183611072565b60001c905092915050565b610db07f5602aee0014778791585f52018f8b3bf65755a57f860fc9442dace08e5acaeb58261109d565b610dbd6000801b8261109d565b50565b610deb7fca893da798aa0ac92242c512844f2ae25d5e8977424e21a8119b114a4f424e13600061109d565b565b6000610dfb8260000161111b565b9050919050565b6000610e0e838361112c565b610e67578260000182908060018154018082558091505060019003906000526020600020016000909190919091505582600001805490508360010160008481526020019081526020016000208190555060019050610e6c565b600090505b92915050565b610e7c828261085c565b610ef357610e898161114f565b610e978360001c602061117c565b604051602001610ea8929190611c65565b6040516020818303038152906040526040517f08c379a0000000000000000000000000000000000000000000000000000000008152600401610eea9190611cd8565b60405180910390fd5b5050565b60007f01ffc9a7000000000000000000000000000000000000000000000000000000007bffffffffffffffffffffffffffffffffffffffffffffffffffffffff1916827bffffffffffffffffffffffffffffffffffffffffffffffffffffffff1916149050919050565b610f6b828261085c565b1561103e57600080600084815260200190815260200160002060000160008373ffffffffffffffffffffffffffffffffffffffff1673ffffffffffffffffffffffffffffffffffffffff16815260200190815260200160002060006101000a81548160ff021916908315150217905550610fe3610d30565b73ffffffffffffffffffffffffffffffffffffffff168173ffffffffffffffffffffffffffffffffffffffff16837ff6391f5c32d9c69d2a47ea670b442974b53935d1edc7fd64eb21e047a839171b60405160405180910390a45b5050565b600061106a836000018373ffffffffffffffffffffffffffffffffffffffff1660001b6113b8565b905092915050565b600082600001828154811061108a57611089611cfa565b5b9060005260206000200154905092915050565b60006110a883610a22565b905060005b818110156111155760006110c1858361082d565b90508373ffffffffffffffffffffffffffffffffffffffff168173ffffffffffffffffffffffffffffffffffffffff1614611101576111008582610d38565b5b50808061110d90611d29565b9150506110ad565b50505050565b600081600001805490509050919050565b600080836001016000848152602001908152602001600020541415905092915050565b60606111758273ffffffffffffffffffffffffffffffffffffffff16601460ff1661117c565b9050919050565b60606000600283600261118f9190611d71565b6111999190611b52565b67ffffffffffffffff8111156111b2576111b1611744565b5b6040519080825280601f01601f1916602001820160405280156111e45781602001600182028036833780820191505090505b5090507f30000000000000000000000000000000000000000000000000000000000000008160008151811061121c5761121b611cfa565b5b60200101907effffffffffffffffffffffffffffffffffffffffffffffffffffffffffffff1916908160001a9053507f7800000000000000000000000000000000000000000000000000000000000000816001815181106112805761127f611cfa565b5b60200101907effffffffffffffffffffffffffffffffffffffffffffffffffffffffffffff1916908160001a905350600060018460026112c09190611d71565b6112ca9190611b52565b90505b600181111561136a577f3031323334353637383961626364656600000000000000000000000000000000600f86166010811061130c5761130b611cfa565b5b1a60f81b82828151811061132357611322611cfa565b5b60200101907effffffffffffffffffffffffffffffffffffffffffffffffffffffffffffff1916908160001a905350600485901c94508061136390611db3565b90506112cd565b50600084146113ae576040517f08c379a00000000000000000000000000000000000000000000000000000000081526004016113a590611e28565b60405180910390fd5b8091505092915050565b600080836001016000848152602001908152602001600020549050600081146114c05760006001826113ea9190611e48565b90506000600186600001805490506114029190611e48565b905081811461147157600086600001828154811061142357611422611cfa565b5b906000526020600020015490508087600001848154811061144757611446611cfa565b5b90600052602060002001819055508387600101600083815260200190815260200160002081905550505b8560000180548061148557611484611e7c565b5b6001900381819060005260206000200160009055905585600101600086815260200190815260200160002060009055600193505050506114c6565b60009150505b92915050565b6000604051905090565b600080fd5b600080fd5b600073ffffffffffffffffffffffffffffffffffffffff82169050919050565b600061150b826114e0565b9050919050565b61151b81611500565b811461152657600080fd5b50565b60008135905061153881611512565b92915050565b600060208284031215611554576115536114d6565b5b600061156284828501611529565b91505092915050565b60007fffffffff0000000000000000000000000000000000000000000000000000000082169050919050565b6115a08161156b565b81146115ab57600080fd5b50565b6000813590506115bd81611597565b92915050565b6000602082840312156115d9576115d86114d6565b5b60006115e7848285016115ae565b91505092915050565b60008115159050919050565b611605816115f0565b82525050565b600060208201905061162060008301846115fc565b92915050565b6000819050919050565b61163981611626565b811461164457600080fd5b50565b60008135905061165681611630565b92915050565b600060208284031215611672576116716114d6565b5b600061168084828501611647565b91505092915050565b61169281611626565b82525050565b60006020820190506116ad6000830184611689565b92915050565b600080604083850312156116ca576116c96114d6565b5b60006116d885828601611647565b92505060206116e985828601611529565b9150509250929050565b6000819050919050565b611706816116f3565b811461171157600080fd5b50565b600081359050611723816116fd565b92915050565b600080fd5b600080fd5b6000601f19601f8301169050919050565b7f4e487b7100000000000000000000000000000000000000000000000000000000600052604160045260246000fd5b61177c82611733565b810181811067ffffffffffffffff8211171561179b5761179a611744565b5b80604052505050565b60006117ae6114cc565b90506117ba8282611773565b919050565b600067ffffffffffffffff8211156117da576117d9611744565b5b6117e382611733565b9050602081019050919050565b82818337600083830152505050565b600061181261180d846117bf565b6117a4565b90508281526020810184848401111561182e5761182d61172e565b5b6118398482856117f0565b509392505050565b600082601f83011261185657611855611729565b5b81356118668482602086016117ff565b91505092915050565b600080600060608486031215611888576118876114d6565b5b600061189686828701611529565b93505060206118a786828701611714565b925050604084013567ffffffffffffffff8111156118c8576118c76114db565b5b6118d486828701611841565b9150509250925092565b6118e7816116f3565b82525050565b600060208201905061190260008301846118de565b92915050565b60006020828403121561191e5761191d6114d6565b5b600061192c84828501611714565b91505092915050565b6000806040838503121561194c5761194b6114d6565b5b600061195a85828601611647565b925050602061196b85828601611714565b9150509250929050565b61197e81611500565b82525050565b60006020820190506119996000830184611975565b92915050565b6119a8816115f0565b81146119b357600080fd5b50565b6000813590506119c58161199f565b92915050565b6000602082840312156119e1576119e06114d6565b5b60006119ef848285016119b6565b91505092915050565b600082825260208201905092915050565b7f416363657373436f6e74726f6c3a2063616e206f6e6c792072656e6f756e636560008201527f20726f6c657320666f722073656c660000000000000000000000000000000000602082015250565b6000611a65602f836119f8565b9150611a7082611a09565b604082019050919050565b60006020820190508181036000830152611a9481611a58565b9050919050565b600081519050919050565b600081905092915050565b60005b83811015611acf578082015181840152602081019050611ab4565b60008484015250505050565b6000611ae682611a9b565b611af08185611aa6565b9350611b00818560208601611ab1565b80840191505092915050565b6000611b188284611adb565b915081905092915050565b7f4e487b7100000000000000000000000000000000000000000000000000000000600052601160045260246000fd5b6000611b5d826116f3565b9150611b68836116f3565b9250828201905080821115611b8057611b7f611b23565b5b92915050565b600081905092915050565b7f416363657373436f6e74726f6c3a206163636f756e7420000000000000000000600082015250565b6000611bc7601783611b86565b9150611bd282611b91565b601782019050919050565b600081519050919050565b6000611bf382611bdd565b611bfd8185611b86565b9350611c0d818560208601611ab1565b80840191505092915050565b7f206973206d697373696e6720726f6c6520000000000000000000000000000000600082015250565b6000611c4f601183611b86565b9150611c5a82611c19565b601182019050919050565b6000611c7082611bba565b9150611c7c8285611be8565b9150611c8782611c42565b9150611c938284611be8565b91508190509392505050565b6000611caa82611bdd565b611cb481856119f8565b9350611cc4818560208601611ab1565b611ccd81611733565b840191505092915050565b60006020820190508181036000830152611cf28184611c9f565b905092915050565b7f4e487b7100000000000000000000000000000000000000000000000000000000600052603260045260246000fd5b6000611d34826116f3565b91507fffffffffffffffffffffffffffffffffffffffffffffffffffffffffffffffff8203611d6657611d65611b23565b5b600182019050919050565b6000611d7c826116f3565b9150611d87836116f3565b9250828202611d95816116f3565b91508282048414831517611dac57611dab611b23565b5b5092915050565b6000611dbe826116f3565b915060008203611dd157611dd0611b23565b5b600182039050919050565b7f537472696e67733a20686578206c656e67746820696e73756666696369656e74600082015250565b6000611e126020836119f8565b9150611e1d82611ddc565b602082019050919050565b60006020820190508181036000830152611e4181611e05565b9050919050565b6000611e53826116f3565b9150611e5e836116f3565b9250828203905081811115611e7657611e75611b23565b5b92915050565b7f4e487b7100000000000000000000000000000000000000000000000000000000600052603160045260246000fdfea26469706673582212202d0de6859df05e67283fcfd4e5e6904bf300368882f467dace417559d459a0ca64736f6c63430008110033",
  "linkReferences": {},
  "deployedLinkReferences": {}
}